:03000000020800F3
:0C080000787FE4F6D8FD75810E020847F1
:04094E00020D000096
:10088C00750A01750B10750C00E4F50DF50EAB0A2D
:10089C00AA0BA90C120935FFB46103759077EFB45C
:1008AC0062037590FCEFB46303759039EFB4640385
:1008BC0075905EEFB46503759079EFB4660375902F
:1008CC0071EFB4670375906FEFB46803759076EFB2
:1008DC00B46903759006EFB46A0375900E7F037EBE
:1008EC000012090F7401250CF50CE4350BF50B0502
:1008FC000EE50E7002050DC3940AE50D648094801C
:03090C00408C22FA
:10090F00E4FDFCC3ED9FEE6480F8EC648098501515
:10091F00E4FBFA0BBB00010ABA04F8BBFBF50DBDF3
:05092F0000010C80DE58
:0109340022A0
:10080C0002088CE493A3F8E493A34003F68001F26E
:10081C0008DFF48029E493A3F85407240CC8C333ED
:10082C00C4540F4420C8834004F456800146F6DFBC
:10083C00E4800B010204081020408090094EE47EF5
:10084C00019360BCA3FF543F30E509541FFEE493B1
:10085C00A360010ECF54C025E060A840B8E493A378
:10086C00FAE493A3F8E493A3C8C582C8CAC583CAA3
:10087C00F0A3C8C582C8CAC583CADFE9DEE780BE5B
:0109520000A4
:10093500BB010689828A83E0225002E722BBFE02C0
:09094500E32289828A83E49322F3
:00000001FF
